{
  "contractName": "AdminPanel",
  "abi": [
    {
      "constant": true,
      "inputs": [
        {
          "name": "",
          "type": "address"
        }
      ],
      "name": "posterAccess",
      "outputs": [
        {
          "name": "",
          "type": "uint256"
        }
      ],
      "payable": false,
      "stateMutability": "view",
      "type": "function"
    },
    {
      "inputs": [],
      "payable": false,
      "stateMutability": "nonpayable",
      "type": "constructor"
    },
    {
      "anonymous": false,
      "inputs": [
        {
          "indexed": false,
          "name": "posterAddr",
          "type": "address"
        }
      ],
      "name": "LogPosterDelete",
      "type": "event"
    },
    {
      "anonymous": false,
      "inputs": [
        {
          "indexed": false,
          "name": "posterAddr",
          "type": "address"
        }
      ],
      "name": "LogPosterAccessReq",
      "type": "event"
    },
    {
      "anonymous": false,
      "inputs": [
        {
          "indexed": false,
          "name": "posterAddr",
          "type": "address"
        }
      ],
      "name": "LogPosterApproved",
      "type": "event"
    },
    {
      "anonymous": false,
      "inputs": [
        {
          "indexed": false,
          "name": "posterAddr",
          "type": "address"
        }
      ],
      "name": "LogPosterRejected",
      "type": "event"
    },
    {
      "constant": true,
      "inputs": [
        {
          "name": "addr",
          "type": "address"
        }
      ],
      "name": "isAdmin",
      "outputs": [
        {
          "name": "",
          "type": "bool"
        }
      ],
      "payable": false,
      "stateMutability": "view",
      "type": "function"
    },
    {
      "constant": false,
      "inputs": [
        {
          "name": "posterAddr",
          "type": "address"
        }
      ],
      "name": "deletePoster",
      "outputs": [],
      "payable": false,
      "stateMutability": "nonpayable",
      "type": "function"
    },
    {
      "constant": false,
      "inputs": [
        {
          "name": "posterAddr",
          "type": "address"
        }
      ],
      "name": "approvePoster",
      "outputs": [],
      "payable": false,
      "stateMutability": "nonpayable",
      "type": "function"
    },
    {
      "constant": false,
      "inputs": [
        {
          "name": "posterAddr",
          "type": "address"
        }
      ],
      "name": "rejectPoster",
      "outputs": [],
      "payable": false,
      "stateMutability": "nonpayable",
      "type": "function"
    },
    {
      "constant": true,
      "inputs": [
        {
          "name": "idx",
          "type": "uint256"
        }
      ],
      "name": "fetchApprovedPoster",
      "outputs": [
        {
          "name": "",
          "type": "address"
        }
      ],
      "payable": false,
      "stateMutability": "view",
      "type": "function"
    },
    {
      "constant": true,
      "inputs": [],
      "name": "fetchApprovedPosterNum",
      "outputs": [
        {
          "name": "",
          "type": "uint256"
        }
      ],
      "payable": false,
      "stateMutability": "view",
      "type": "function"
    },
    {
      "constant": true,
      "inputs": [
        {
          "name": "idx",
          "type": "uint256"
        }
      ],
      "name": "fetchPendingPoster",
      "outputs": [
        {
          "name": "",
          "type": "address"
        }
      ],
      "payable": false,
      "stateMutability": "view",
      "type": "function"
    },
    {
      "constant": true,
      "inputs": [],
      "name": "fetchPendingPosterNum",
      "outputs": [
        {
          "name": "",
          "type": "uint256"
        }
      ],
      "payable": false,
      "stateMutability": "view",
      "type": "function"
    },
    {
      "constant": false,
      "inputs": [
        {
          "name": "posterAddr",
          "type": "address"
        }
      ],
      "name": "reqAccessFromAdmin",
      "outputs": [
        {
          "name": "",
          "type": "bool"
        }
      ],
      "payable": false,
      "stateMutability": "nonpayable",
      "type": "function"
    },
    {
      "constant": true,
      "inputs": [
        {
          "name": "posterAddr",
          "type": "address"
        }
      ],
      "name": "checkPosterAccess",
      "outputs": [
        {
          "name": "",
          "type": "uint256"
        }
      ],
      "payable": false,
      "stateMutability": "view",
      "type": "function"
    }
  ],
  "bytecode": "0x608060405234801561001057600080fd5b50336000806101000a81548173ffffffffffffffffffffffffffffffffffffffff021916908373ffffffffffffffffffffffffffffffffffffffff160217905550610f0e806100606000396000f3fe608060405234801561001057600080fd5b50600436106100a95760003560e01c8063a9e611f511610071578063a9e611f5146101f8578063bab94e1214610254578063e87b284114610298578063ed83c556146102dc578063fc0d588c1461034a578063fed9b110146103a2576100a9565b806324d7806c146100ae57806347c1b4b21461010a5780634fa44549146101785780637f050cbd146101bc57806386753999146101da575b600080fd5b6100f0600480360360208110156100c457600080fd5b81019080803573ffffffffffffffffffffffffffffffffffffffff1690602001909291905050506103fa565b604051808215151515815260200191505060405180910390f35b6101366004803603602081101561012057600080fd5b8101908080359060200190929190505050610453565b604051808273ffffffffffffffffffffffffffffffffffffffff1673ffffffffffffffffffffffffffffffffffffffff16815260200191505060405180910390f35b6101ba6004803603602081101561018e57600080fd5b81019080803573ffffffffffffffffffffffffffffffffffffffff169060200190929190505050610556565b005b6101c46106c3565b6040518082815260200191505060405180910390f35b6101e2610792565b6040518082815260200191505060405180910390f35b61023a6004803603602081101561020e57600080fd5b81019080803573ffffffffffffffffffffffffffffffffffffffff169060200190929190505050610861565b604051808215151515815260200191505060405180910390f35b6102966004803603602081101561026a57600080fd5b81019080803573ffffffffffffffffffffffffffffffffffffffff169060200190929190505050610a10565b005b6102da600480360360208110156102ae57600080fd5b81019080803573ffffffffffffffffffffffffffffffffffffffff169060200190929190505050610be3565b005b610308600480360360208110156102f257600080fd5b8101908080359060200190929190505050610d50565b604051808273ffffffffffffffffffffffffffffffffffffffff1673ffffffffffffffffffffffffffffffffffffffff16815260200191505060405180910390f35b61038c6004803603602081101561036057600080fd5b81019080803573ffffffffffffffffffffffffffffffffffffffff169060200190929190505050610e53565b6040518082815260200191505060405180910390f35b6103e4600480360360208110156103b857600080fd5b81019080803573ffffffffffffffffffffffffffffffffffffffff169060200190929190505050610e9c565b6040518082815260200191505060405180910390f35b60008060009054906101000a900473ffffffffffffffffffffffffffffffffffffffff1673ffffffffffffffffffffffffffffffffffffffff168273ffffffffffffffffffffffffffffffffffffffff16149050919050565b60008060009054906101000a900473ffffffffffffffffffffffffffffffffffffffff1673ffffffffffffffffffffffffffffffffffffffff163373ffffffffffffffffffffffffffffffffffffffff1614610517576040517f08c379a00000000000000000000000000000000000000000000000000000000081526004018080602001828103825260208152602001807f4f6e6c792061646d696e2063616e20657865637574652074686973207461736b81525060200191505060405180910390fd5b6003828154811061052457fe5b9060005260206000200160009054906101000a900473ffffffffffffffffffffffffffffffffffffffff169050919050565b6000809054906101000a900473ffffffffffffffffffffffffffffffffffffffff1673ffffffffffffffffffffffffffffffffffffffff163373ffffffffffffffffffffffffffffffffffffffff1614610618576040517f08c379a00000000000000000000000000000000000000000000000000000000081526004018080602001828103825260208152602001807f4f6e6c792061646d696e2063616e20657865637574652074686973207461736b81525060200191505060405180910390fd5b6000600160008373ffffffffffffffffffffffffffffffffffffffff1673ffffffffffffffffffffffffffffffffffffffff168152602001908152602001600020819055507f83a9c36fb4498d01eba6ea1be60829085ccdc21f3f584f30bca7d1e86b648cf581604051808273ffffffffffffffffffffffffffffffffffffffff1673ffffffffffffffffffffffffffffffffffffffff16815260200191505060405180910390a150565b60008060009054906101000a900473ffffffffffffffffffffffffffffffffffffffff1673ffffffffffffffffffffffffffffffffffffffff163373ffffffffffffffffffffffffffffffffffffffff1614610787576040517f08c379a00000000000000000000000000000000000000000000000000000000081526004018080602001828103825260208152602001807f4f6e6c792061646d696e2063616e20657865637574652074686973207461736b81525060200191505060405180910390fd5b600380549050905090565b60008060009054906101000a900473ffffffffffffffffffffffffffffffffffffffff1673ffffffffffffffffffffffffffffffffffffffff163373ffffffffffffffffffffffffffffffffffffffff1614610856576040517f08c379a00000000000000000000000000000000000000000000000000000000081526004018080602001828103825260208152602001807f4f6e6c792061646d696e2063616e20657865637574652074686973207461736b81525060200191505060405180910390fd5b600280549050905090565b600080600160008473ffffffffffffffffffffffffffffffffffffffff1673ffffffffffffffffffffffffffffffffffffffff16815260200190815260200160002054146108fa576040517f08c379a000000000000000000000000000000000000000000000000000000000815260040180806020018281038252602e815260200180610eb5602e913960400191505060405180910390fd5b60018060008473ffffffffffffffffffffffffffffffffffffffff1673ffffffffffffffffffffffffffffffffffffffff1681526020019081526020016000208190555060028290806001815401808255809150509060018203906000526020600020016000909192909190916101000a81548173ffffffffffffffffffffffffffffffffffffffff021916908373ffffffffffffffffffffffffffffffffffffffff160217905550507f10ef3f71c4845846a34c5ab4eaa646c35f8ed3704b5bc06b673ca3ed95ab0f9682604051808273ffffffffffffffffffffffffffffffffffffffff1673ffffffffffffffffffffffffffffffffffffffff16815260200191505060405180910390a160019050919050565b6000809054906101000a900473ffffffffffffffffffffffffffffffffffffffff1673ffffffffffffffffffffffffffffffffffffffff163373ffffffffffffffffffffffffffffffffffffffff1614610ad2576040517f08c379a00000000000000000000000000000000000000000000000000000000081526004018080602001828103825260208152602001807f4f6e6c792061646d696e2063616e20657865637574652074686973207461736b81525060200191505060405180910390fd5b6002600160008373ffffffffffffffffffffffffffffffffffffffff1673ffffffffffffffffffffffffffffffffffffffff1681526020019081526020016000208190555060038190806001815401808255809150509060018203906000526020600020016000909192909190916101000a81548173ffffffffffffffffffffffffffffffffffffffff021916908373ffffffffffffffffffffffffffffffffffffffff160217905550507f7cb8b1f76ada4837b76381ee525f91018cc3bcac50402c2068033738b22f1b5e81604051808273ffffffffffffffffffffffffffffffffffffffff1673ffffffffffffffffffffffffffffffffffffffff16815260200191505060405180910390a150565b6000809054906101000a900473ffffffffffffffffffffffffffffffffffffffff1673ffffffffffffffffffffffffffffffffffffffff163373ffffffffffffffffffffffffffffffffffffffff1614610ca5576040517f08c379a00000000000000000000000000000000000000000000000000000000081526004018080602001828103825260208152602001807f4f6e6c792061646d696e2063616e20657865637574652074686973207461736b81525060200191505060405180910390fd5b6000600160008373ffffffffffffffffffffffffffffffffffffffff1673ffffffffffffffffffffffffffffffffffffffff168152602001908152602001600020819055507f32dba557bceec4cce3f9e209448f29b327219ddef576b43de8d79de374b79bad81604051808273ffffffffffffffffffffffffffffffffffffffff1673ffffffffffffffffffffffffffffffffffffffff16815260200191505060405180910390a150565b60008060009054906101000a900473ffffffffffffffffffffffffffffffffffffffff1673ffffffffffffffffffffffffffffffffffffffff163373ffffffffffffffffffffffffffffffffffffffff1614610e14576040517f08c379a00000000000000000000000000000000000000000000000000000000081526004018080602001828103825260208152602001807f4f6e6c792061646d696e2063616e20657865637574652074686973207461736b81525060200191505060405180910390fd5b60028281548110610e2157fe5b9060005260206000200160009054906101000a900473ffffffffffffffffffffffffffffffffffffffff169050919050565b6000600160008373ffffffffffffffffffffffffffffffffffffffff1673ffffffffffffffffffffffffffffffffffffffff168152602001908152602001600020549050919050565b6001602052806000526040600020600091509050548156fe506f7374657220697320616c726561647920617070726f766564206f722070656e64696e6720617070726f76616ca165627a7a72305820726a07d1ba88ae45fc8d62efbc7201a75a1b49ae134a9b5c76cabb70ebb024ac0029",
  "source": "pragma solidity ^0.5.0;\n\n/**\n* @title AdminPanel\n* @dev Allows Hub-admin to add and remove Job posters and allows Job posters to request access\n*/\ncontract AdminPanel\n{\n    /// Admin\n    address admin;\n\n    /// Map of Job posters approved by admin\n    /// 0 -> unapproved\n    /// 1 -> poster added to req queue\n    /// 2 -> poster approved by Admin\n    mapping(address => uint) public posterAccess;\n\n    /// An array of posters that are yet to receive approval from admin\n    address[] postersWaitingApproval;\n\n    /// An array of job posters approved by the admin\n    address[] approvedPosters;\n\n\n\n    /// Events related to job posters\n    event LogPosterDelete(address posterAddr);\n    event LogPosterAccessReq(address posterAddr);\n    event LogPosterApproved(address posterAddr);\n    event LogPosterRejected(address posterAddr);\n\n\n    /// Checks if the caller is admin\n    modifier verifyAdmin()\n    {\n        require(msg.sender == admin, 'Only admin can execute this task');\n        _;\n    }\n\n    constructor()\n        public\n    {\n        admin = msg.sender;\n    }\n\n    /** @dev Verify is an addr is admin\n\t* @param addr - Address to be checked\n    * @return Bool to indicate whether addr is admin\n\t*/\n    function isAdmin(address addr)\n        public\n        view\n        returns (bool)\n    {\n        return(addr == admin);\n    }\n\n    /** @dev Allows admin delete an already approved job poster\n\t* @param posterAddr - Address of the Job poster\n\t*/\n    function deletePoster(address posterAddr)\n        public\n        verifyAdmin()\n    {\n        posterAccess[posterAddr] = 0;\n\n        emit LogPosterDelete(posterAddr);\n    }\n\n    /** @dev Allows admin to approve job posters who request access\n\t* @param posterAddr - Address of the Job poster\n\t*/\n    function approvePoster(address posterAddr)\n        public\n        verifyAdmin()\n    {\n        posterAccess[posterAddr] = 2;\n        approvedPosters.push(posterAddr);\n        emit LogPosterApproved(posterAddr);\n    }\n\n    /** @dev Allows admin to reject job posters who request access\n\t* @param posterAddr - Address of the Job poster\n\t*/\n    function rejectPoster(address posterAddr)\n        public\n        verifyAdmin()\n    {\n        posterAccess[posterAddr] = 0;\n        emit LogPosterRejected(posterAddr);\n    }\n\n    /** @dev Allows admin to fetch an approved posters addr using idx\n\t* @return address of the approved poster at the given idx\n\t*/\n    function fetchApprovedPoster(uint idx)\n        public\n        view\n        verifyAdmin\n        returns (address)\n    {\n        return approvedPosters[idx];\n    }\n\n    /** @dev Allows admin to fetch the number of approved\n\t* @return length of array of approved posters\n\t*/\n    function fetchApprovedPosterNum()\n        public\n        view\n        verifyAdmin\n        returns(uint)\n    {\n        return approvedPosters.length;\n    }\n\n    /** @dev Allows admin to fetch the addr posters pending approval\n\t* @return address of the approved poster at the given idx\n\t*/\n    function fetchPendingPoster(uint idx)\n        public\n        view\n        verifyAdmin\n        returns(address)\n    {\n        return postersWaitingApproval[idx];\n    }\n\n    /** @dev Allows admin to fetch the number of posters pending approval\n\t* @return length of array of pending posters\n\t*/\n    function fetchPendingPosterNum()\n        public\n        view\n        verifyAdmin\n        returns(uint)\n    {\n        return postersWaitingApproval.length;\n    }\n\n    /** @dev Allows job posters to req access from Admin\n\t* @param posterAddr - Address of the Job poster\n    * @return bool to indicate if request was successful\n\t*/\n    function reqAccessFromAdmin(address posterAddr)\n        public\n        returns(bool)\n    {\n        require(posterAccess[posterAddr] == 0, 'Poster is already approved or pending approval');\n        posterAccess[posterAddr] = 1;\n        postersWaitingApproval.push(posterAddr);\n        emit LogPosterAccessReq(posterAddr);\n        return true;\n    }\n\n    function checkPosterAccess(address posterAddr)\n        public\n        view\n        returns(uint)\n    {\n        return posterAccess[posterAddr];\n    }\n\n}",
  "sourcePath": "/home/tj/project/contracts/AdminPanel.sol",
  "compiler": {
    "name": "solc",
    "version": "0.5.8+commit.23d335f2.Emscripten.clang"
  },
  "schemaVersion": "3.0.11",
  "updatedAt": "2019-08-01T09:46:23.547Z",
  "devdoc": {
    "details": "Allows Hub-admin to add and remove Job posters and allows Job posters to request access",
    "methods": {
      "approvePoster(address)": {
        "details": "Allows admin to approve job posters who request access",
        "params": {
          "posterAddr": "- Address of the Job poster"
        }
      },
      "deletePoster(address)": {
        "details": "Allows admin delete an already approved job poster",
        "params": {
          "posterAddr": "- Address of the Job poster"
        }
      },
      "fetchApprovedPoster(uint256)": {
        "details": "Allows admin to fetch an approved posters addr using idx",
        "return": "address of the approved poster at the given idx"
      },
      "fetchApprovedPosterNum()": {
        "details": "Allows admin to fetch the number of approved",
        "return": "length of array of approved posters"
      },
      "fetchPendingPoster(uint256)": {
        "details": "Allows admin to fetch the addr posters pending approval",
        "return": "address of the approved poster at the given idx"
      },
      "fetchPendingPosterNum()": {
        "details": "Allows admin to fetch the number of posters pending approval",
        "return": "length of array of pending posters"
      },
      "isAdmin(address)": {
        "details": "Verify is an addr is admin",
        "params": {
          "addr": "- Address to be checked"
        },
        "return": "Bool to indicate whether addr is admin"
      },
      "rejectPoster(address)": {
        "details": "Allows admin to reject job posters who request access",
        "params": {
          "posterAddr": "- Address of the Job poster"
        }
      },
      "reqAccessFromAdmin(address)": {
        "details": "Allows job posters to req access from Admin",
        "params": {
          "posterAddr": "- Address of the Job poster"
        },
        "return": "bool to indicate if request was successful"
      }
    },
    "title": "AdminPanel"
  },
  "userdoc": {
    "methods": {}
  }
}