{
  "contractName": "BountyHub",
  "abi": [
    {
      "constant": true,
      "inputs": [],
      "name": "bountyCount",
      "outputs": [
        {
          "name": "",
          "type": "uint256"
        }
      ],
      "payable": false,
      "stateMutability": "view",
      "type": "function"
    },
    {
      "constant": true,
      "inputs": [],
      "name": "submissionCount",
      "outputs": [
        {
          "name": "",
          "type": "uint256"
        }
      ],
      "payable": false,
      "stateMutability": "view",
      "type": "function"
    },
    {
      "constant": true,
      "inputs": [],
      "name": "panelInstance",
      "outputs": [
        {
          "name": "",
          "type": "address"
        }
      ],
      "payable": false,
      "stateMutability": "view",
      "type": "function"
    },
    {
      "inputs": [
        {
          "name": "adminAddr",
          "type": "address"
        }
      ],
      "payable": false,
      "stateMutability": "nonpayable",
      "type": "constructor"
    },
    {
      "anonymous": false,
      "inputs": [
        {
          "indexed": false,
          "name": "bountyID",
          "type": "uint256"
        }
      ],
      "name": "LogBountyCreated",
      "type": "event"
    },
    {
      "anonymous": false,
      "inputs": [
        {
          "indexed": false,
          "name": "bountyID",
          "type": "uint256"
        }
      ],
      "name": "LogBountyDeleted",
      "type": "event"
    },
    {
      "anonymous": false,
      "inputs": [
        {
          "indexed": false,
          "name": "bountyHunter",
          "type": "address"
        },
        {
          "indexed": false,
          "name": "bountyID",
          "type": "uint256"
        }
      ],
      "name": "LogBountySubmitted",
      "type": "event"
    },
    {
      "anonymous": false,
      "inputs": [
        {
          "indexed": false,
          "name": "bountyHunter",
          "type": "address"
        },
        {
          "indexed": false,
          "name": "bountyID",
          "type": "uint256"
        }
      ],
      "name": "LogBountyAccepted",
      "type": "event"
    },
    {
      "anonymous": false,
      "inputs": [
        {
          "indexed": false,
          "name": "bountyID",
          "type": "uint256"
        },
        {
          "indexed": false,
          "name": "submissionID",
          "type": "uint256"
        }
      ],
      "name": "LogSubmissionAccepted",
      "type": "event"
    },
    {
      "constant": false,
      "inputs": [
        {
          "name": "_desc",
          "type": "string"
        },
        {
          "name": "_amt",
          "type": "uint256"
        }
      ],
      "name": "createBounty",
      "outputs": [],
      "payable": false,
      "stateMutability": "nonpayable",
      "type": "function"
    },
    {
      "constant": false,
      "inputs": [
        {
          "name": "bountyID",
          "type": "uint256"
        }
      ],
      "name": "deleteBounty",
      "outputs": [],
      "payable": false,
      "stateMutability": "nonpayable",
      "type": "function"
    },
    {
      "constant": true,
      "inputs": [
        {
          "name": "posterAddr",
          "type": "address"
        }
      ],
      "name": "viewPostedBounties",
      "outputs": [
        {
          "name": "",
          "type": "uint256[]"
        }
      ],
      "payable": false,
      "stateMutability": "view",
      "type": "function"
    },
    {
      "constant": true,
      "inputs": [],
      "name": "getBountyCount",
      "outputs": [
        {
          "name": "",
          "type": "uint256"
        }
      ],
      "payable": false,
      "stateMutability": "view",
      "type": "function"
    },
    {
      "constant": true,
      "inputs": [
        {
          "name": "bountyID",
          "type": "uint256"
        }
      ],
      "name": "getBountyDesc",
      "outputs": [
        {
          "name": "",
          "type": "string"
        }
      ],
      "payable": false,
      "stateMutability": "view",
      "type": "function"
    },
    {
      "constant": true,
      "inputs": [
        {
          "name": "bountyID",
          "type": "uint256"
        }
      ],
      "name": "getBountyAmt",
      "outputs": [
        {
          "name": "",
          "type": "uint256"
        }
      ],
      "payable": false,
      "stateMutability": "view",
      "type": "function"
    },
    {
      "constant": true,
      "inputs": [
        {
          "name": "bountyID",
          "type": "uint256"
        }
      ],
      "name": "getBountyOwner",
      "outputs": [
        {
          "name": "",
          "type": "address"
        }
      ],
      "payable": false,
      "stateMutability": "view",
      "type": "function"
    },
    {
      "constant": true,
      "inputs": [
        {
          "name": "bountyID",
          "type": "uint256"
        }
      ],
      "name": "getBountyStatus",
      "outputs": [
        {
          "name": "",
          "type": "bool"
        }
      ],
      "payable": false,
      "stateMutability": "view",
      "type": "function"
    },
    {
      "constant": false,
      "inputs": [
        {
          "name": "bountyID",
          "type": "uint256"
        },
        {
          "name": "submissionID",
          "type": "uint256"
        }
      ],
      "name": "approveSubmission",
      "outputs": [],
      "payable": true,
      "stateMutability": "payable",
      "type": "function"
    },
    {
      "constant": false,
      "inputs": [
        {
          "name": "bountyID",
          "type": "uint256"
        },
        {
          "name": "URL",
          "type": "string"
        }
      ],
      "name": "createSubmission",
      "outputs": [],
      "payable": false,
      "stateMutability": "nonpayable",
      "type": "function"
    },
    {
      "constant": true,
      "inputs": [
        {
          "name": "bountyID",
          "type": "uint256"
        }
      ],
      "name": "getSubsbyBounty",
      "outputs": [
        {
          "name": "",
          "type": "uint256[]"
        }
      ],
      "payable": false,
      "stateMutability": "view",
      "type": "function"
    },
    {
      "constant": true,
      "inputs": [
        {
          "name": "subID",
          "type": "uint256"
        }
      ],
      "name": "getSubsBountyID",
      "outputs": [
        {
          "name": "",
          "type": "uint256"
        }
      ],
      "payable": false,
      "stateMutability": "view",
      "type": "function"
    },
    {
      "constant": true,
      "inputs": [
        {
          "name": "subID",
          "type": "uint256"
        }
      ],
      "name": "getSubmissionOwner",
      "outputs": [
        {
          "name": "",
          "type": "address"
        }
      ],
      "payable": false,
      "stateMutability": "view",
      "type": "function"
    },
    {
      "constant": true,
      "inputs": [
        {
          "name": "subID",
          "type": "uint256"
        }
      ],
      "name": "getSubmissionURL",
      "outputs": [
        {
          "name": "",
          "type": "string"
        }
      ],
      "payable": false,
      "stateMutability": "view",
      "type": "function"
    },
    {
      "constant": true,
      "inputs": [
        {
          "name": "subID",
          "type": "uint256"
        }
      ],
      "name": "getSubmissionStatus",
      "outputs": [
        {
          "name": "",
          "type": "bool"
        }
      ],
      "payable": false,
      "stateMutability": "view",
      "type": "function"
    }
  ],
  "bytecode": "0x608060405234801561001057600080fd5b50604051602080611a5e8339810180604052602081101561003057600080fd5b8101908080519060200190929190505050806000806101000a81548173ffffffffffffffffffffffffffffffffffffffff021916908373ffffffffffffffffffffffffffffffffffffffff1602179055506000600181905550506119c5806100996000396000f3fe6080604052600436106101095760003560e01c8063710a95ff11610095578063a5e99c4e11610064578063a5e99c4e146105db578063b83a3bc1146106ad578063ba445a901461077f578063e74205f614610833578063e9dcac3c1461088657610109565b8063710a95ff146103f1578063722b7b6d1461044857806387b7f1bb146104fc5780638f21a13a1461054b57610109565b80633254e2c2116100dc5780633254e2c21461023f57806338ac34e3146102e55780633e362c96146103605780634dba92101461038b5780636ec02be9146103c657610109565b806306641f7e1461010e5780630ba4df30146101395780632d6c30081461018c5780633005516b146101c4575b600080fd5b34801561011a57600080fd5b506101236108d5565b6040518082815260200191505060405180910390f35b34801561014557600080fd5b506101726004803603602081101561015c57600080fd5b81019080803590602001909291905050506108df565b604051808215151515815260200191505060405180910390f35b6101c2600480360360408110156101a257600080fd5b81019080803590602001909291908035906020019092919050505061090c565b005b3480156101d057600080fd5b506101fd600480360360208110156101e757600080fd5b8101908080359060200190929190505050610d4d565b604051808273ffffffffffffffffffffffffffffffffffffffff1673ffffffffffffffffffffffffffffffffffffffff16815260200191505060405180910390f35b34801561024b57600080fd5b5061028e6004803603602081101561026257600080fd5b81019080803573ffffffffffffffffffffffffffffffffffffffff169060200190929190505050610d8d565b6040518080602001828103825283818151815260200191508051906020019060200280838360005b838110156102d15780820151818401526020810190506102b6565b505050509050019250505060405180910390f35b3480156102f157600080fd5b5061031e6004803603602081101561030857600080fd5b8101908080359060200190929190505050610e24565b604051808273ffffffffffffffffffffffffffffffffffffffff1673ffffffffffffffffffffffffffffffffffffffff16815260200191505060405180910390f35b34801561036c57600080fd5b50610375610e64565b6040518082815260200191505060405180910390f35b34801561039757600080fd5b506103c4600480360360208110156103ae57600080fd5b8101908080359060200190929190505050610e6a565b005b3480156103d257600080fd5b506103db61115a565b6040518082815260200191505060405180910390f35b3480156103fd57600080fd5b50610406611160565b604051808273ffffffffffffffffffffffffffffffffffffffff1673ffffffffffffffffffffffffffffffffffffffff16815260200191505060405180910390f35b34801561045457600080fd5b506104816004803603602081101561046b57600080fd5b8101908080359060200190929190505050611185565b6040518080602001828103825283818151815260200191508051906020019080838360005b838110156104c15780820151818401526020810190506104a6565b50505050905090810190601f1680156104ee5780820380516001836020036101000a031916815260200191505b509250505060405180910390f35b34801561050857600080fd5b506105356004803603602081101561051f57600080fd5b810190808035906020019092919050505061123d565b6040518082815260200191505060405180910390f35b34801561055757600080fd5b506105846004803603602081101561056e57600080fd5b810190808035906020019092919050505061125a565b6040518080602001828103825283818151815260200191508051906020019060200280838360005b838110156105c75780820151818401526020810190506105ac565b505050509050019250505060405180910390f35b3480156105e757600080fd5b506106ab600480360360408110156105fe57600080fd5b81019080803590602001909291908035906020019064010000000081111561062557600080fd5b82018360208201111561063757600080fd5b8035906020019184600183028401116401000000008311171561065957600080fd5b91908080601f016020809104026020016040519081016040528093929190818152602001838380828437600081840152601f19601f8201169050808301925050505050505091929192905050506112c5565b005b3480156106b957600080fd5b5061077d600480360360408110156106d057600080fd5b81019080803590602001906401000000008111156106ed57600080fd5b8201836020820111156106ff57600080fd5b8035906020019184600183028401116401000000008311171561072157600080fd5b91908080601f016020809104026020016040519081016040528093929190818152602001838380828437600081840152601f19601f82011690508083019250505050505050919291929080359060200190929190505050611426565b005b34801561078b57600080fd5b506107b8600480360360208110156107a257600080fd5b8101908080359060200190929190505050611763565b6040518080602001828103825283818151815260200191508051906020019080838360005b838110156107f85780820151818401526020810190506107dd565b50505050905090810190601f1680156108255780820380516001836020036101000a031916815260200191505b509250505060405180910390f35b34801561083f57600080fd5b5061086c6004803603602081101561085657600080fd5b810190808035906020019092919050505061181b565b604051808215151515815260200191505060405180910390f35b34801561089257600080fd5b506108bf600480360360208110156108a957600080fd5b8101908080359060200190929190505050611848565b6040518082815260200191505060405180910390f35b6000600154905090565b60006009600083815260200190815260200160002060030160149054906101000a900460ff169050919050565b60026000809054906101000a900473ffffffffffffffffffffffffffffffffffffffff1673ffffffffffffffffffffffffffffffffffffffff1663fc0d588c336040518263ffffffff1660e01b8152600401808273ffffffffffffffffffffffffffffffffffffffff1673ffffffffffffffffffffffffffffffffffffffff16815260200191505060206040518083038186803b1580156109ac57600080fd5b505afa1580156109c0573d6000803e3d6000fd5b505050506040513d60208110156109d657600080fd5b810190808051906020019092919050505014610a3d576040517f08c379a00000000000000000000000000000000000000000000000000000000081526004018080602001828103825260218152602001806119556021913960400191505060405180910390fd5b813373ffffffffffffffffffffffffffffffffffffffff166003600083815260200190815260200160002060009054906101000a900473ffffffffffffffffffffffffffffffffffffffff1673ffffffffffffffffffffffffffffffffffffffff1614610af5576040517f08c379a00000000000000000000000000000000000000000000000000000000081526004018080602001828103825260248152602001806119766024913960400191505060405180910390fd5b600115156005600085815260200190815260200160002060030160149054906101000a900460ff16151514610b92576040517f08c379a00000000000000000000000000000000000000000000000000000000081526004018080602001828103825260128152602001807f426f756e747920697320696e616374697665000000000000000000000000000081525060200191505060405180910390fd5b60016009600084815260200190815260200160002060030160146101000a81548160ff02191690831515021790555060006005600085815260200190815260200160002060020154905080341015610c2d576040517f08c379a0000000000000000000000000000000000000000000000000000000008152600401808060200182810382526000815260200160200191505060405180910390fd5b6000813403905060006009600086815260200190815260200160002060030160009054906101000a900473ffffffffffffffffffffffffffffffffffffffff1690508073ffffffffffffffffffffffffffffffffffffffff166108fc849081150290604051600060405180830381858888f19350505050158015610cb5573d6000803e3d6000fd5b503373ffffffffffffffffffffffffffffffffffffffff166108fc839081150290604051600060405180830381858888f19350505050158015610cfc573d6000803e3d6000fd5b50610d0686610e6a565b7fb11ccb60158250aae31ae6cb2508c3fa91868f01c701da0208f2ec8aee3ba7368686604051808381526020018281526020019250505060405180910390a1505050505050565b60006009600083815260200190815260200160002060030160009054906101000a900473ffffffffffffffffffffffffffffffffffffffff169050919050565b6060600460008373ffffffffffffffffffffffffffffffffffffffff1673ffffffffffffffffffffffffffffffffffffffff168152602001908152602001600020805480602002602001604051908101604052809291908181526020018280548015610e1857602002820191906000526020600020905b815481526020019060010190808311610e04575b50505050509050919050565b60006005600083815260200190815260200160002060030160009054906101000a900473ffffffffffffffffffffffffffffffffffffffff169050919050565b60015481565b60026000809054906101000a900473ffffffffffffffffffffffffffffffffffffffff1673ffffffffffffffffffffffffffffffffffffffff1663fc0d588c336040518263ffffffff1660e01b8152600401808273ffffffffffffffffffffffffffffffffffffffff1673ffffffffffffffffffffffffffffffffffffffff16815260200191505060206040518083038186803b158015610f0a57600080fd5b505afa158015610f1e573d6000803e3d6000fd5b505050506040513d6020811015610f3457600080fd5b810190808051906020019092919050505014610f9b576040517f08c379a00000000000000000000000000000000000000000000000000000000081526004018080602001828103825260218152602001806119556021913960400191505060405180910390fd5b803373ffffffffffffffffffffffffffffffffffffffff166003600083815260200190815260200160002060009054906101000a900473ffffffffffffffffffffffffffffffffffffffff1673ffffffffffffffffffffffffffffffffffffffff1614611053576040517f08c379a00000000000000000000000000000000000000000000000000000000081526004018080602001828103825260248152602001806119766024913960400191505060405180910390fd5b600115156005600084815260200190815260200160002060030160149054906101000a900460ff161515146110f0576040517f08c379a000000000000000000000000000000000000000000000000000000000815260040180806020018281038252601a8152602001807f426f756e747920697320616c726561647920696e61637469766500000000000081525060200191505060405180910390fd5b60006005600084815260200190815260200160002060030160146101000a81548160ff0219169083151502179055507f93f5200de420f218115b26bd5637ebb10a728a5a08e9491f2f7f52eaac4fec01826040518082815260200191505060405180910390a15050565b60025481565b6000809054906101000a900473ffffffffffffffffffffffffffffffffffffffff1681565b6060600960008381526020019081526020016000206002018054600181600116156101000203166002900480601f0160208091040260200160405190810160405280929190818152602001828054600181600116156101000203166002900480156112315780601f1061120657610100808354040283529160200191611231565b820191906000526020600020905b81548152906001019060200180831161121457829003601f168201915b50505050509050919050565b600060076000838152602001908152602001600020549050919050565b6060600660008381526020019081526020016000208054806020026020016040519081016040528092919081815260200182805480156112b957602002820191906000526020600020905b8154815260200190600101908083116112a5575b50505050509050919050565b6040518060a0016040528060025481526020018381526020018281526020013373ffffffffffffffffffffffffffffffffffffffff168152602001600015158152506009600060025481526020019081526020016000206000820151816000015560208201518160010155604082015181600201908051906020019061134c929190611868565b5060608201518160030160006101000a81548173ffffffffffffffffffffffffffffffffffffffff021916908373ffffffffffffffffffffffffffffffffffffffff16021790555060808201518160030160146101000a81548160ff02191690831515021790555090505081600760006002548152602001908152602001600020819055506006600083815260200190815260200160002060025490806001815401808255809150509060018203906000526020600020016000909192909190915055506002600081548092919060010191905055505050565b60026000809054906101000a900473ffffffffffffffffffffffffffffffffffffffff1673ffffffffffffffffffffffffffffffffffffffff1663fc0d588c336040518263ffffffff1660e01b8152600401808273ffffffffffffffffffffffffffffffffffffffff1673ffffffffffffffffffffffffffffffffffffffff16815260200191505060206040518083038186803b1580156114c657600080fd5b505afa1580156114da573d6000803e3d6000fd5b505050506040513d60208110156114f057600080fd5b810190808051906020019092919050505014611557576040517f08c379a00000000000000000000000000000000000000000000000000000000081526004018080602001828103825260218152602001806119556021913960400191505060405180910390fd5b61155f6118e8565b6040518060a0016040528060015481526020018481526020018381526020013373ffffffffffffffffffffffffffffffffffffffff1681526020016001151581525090503360036000600154815260200190815260200160002060006101000a81548173ffffffffffffffffffffffffffffffffffffffff021916908373ffffffffffffffffffffffffffffffffffffffff160217905550600460003373ffffffffffffffffffffffffffffffffffffffff1673ffffffffffffffffffffffffffffffffffffffff16815260200190815260200160002060015490806001815401808255809150509060018203906000526020600020016000909192909190915055508060056000600154815260200190815260200160002060008201518160000155602082015181600101908051906020019061169e929190611868565b506040820151816002015560608201518160030160006101000a81548173ffffffffffffffffffffffffffffffffffffffff021916908373ffffffffffffffffffffffffffffffffffffffff16021790555060808201518160030160146101000a81548160ff0219169083151502179055509050506001600081548092919060010191905055507f3aabba6f1c6e0afbe910149ee23a18ddc44ed37138e39a3398214c1e636c75a66001546040518082815260200191505060405180910390a1505050565b6060600560008381526020019081526020016000206001018054600181600116156101000203166002900480601f01602080910402602001604051908101604052809291908181526020018280546001816001161561010002031660029004801561180f5780601f106117e45761010080835404028352916020019161180f565b820191906000526020600020905b8154815290600101906020018083116117f257829003601f168201915b50505050509050919050565b60006005600083815260200190815260200160002060030160149054906101000a900460ff169050919050565b600060056000838152602001908152602001600020600201549050919050565b828054600181600116156101000203166002900490600052602060002090601f016020900481019282601f106118a957805160ff19168380011785556118d7565b828001600101855582156118d7579182015b828111156118d65782518255916020019190600101906118bb565b5b5090506118e4919061192f565b5090565b6040518060a00160405280600081526020016060815260200160008152602001600073ffffffffffffffffffffffffffffffffffffffff1681526020016000151581525090565b61195191905b8082111561194d576000816000905550600101611935565b5090565b9056fe506c656173652072657175657374206163636573732066726f6d2041646d696e2e596f7520617265206e6f7420746865206f776e6572206f66207468697320626f756e7479a165627a7a7230582077b48062f2bb083038f9402db0ef11271e7b2afac9ba5657723ddf3a53f9ccba0029",
  "source": "pragma solidity ^0.5.0;\n\nimport './AdminPanel.sol';\n\n/*\n* @title BountyHub\n* @dev Hub for job posters to post bounties and enthusiasts to submit projects\n*/\ncontract BountyHub\n{\n    //address public bountyOwner;\n    AdminPanel public panelInstance;\n\n    uint public bountyCount;\n    uint public submissionCount;\n\n    /// maps bountyID to the owner\n    mapping(uint => address) bountyIDtoOwnerMap;\n    /// map of bounty owners to the bounty IDs\n    mapping(address => uint[]) ownerBountyIDMap;\n    /// map of bountyID to Bounties\n    mapping(uint => Bounty) IDtoBountyMap;\n\n\n    /// maps bountyID to submissionIDs\n    mapping(uint => uint[]) bountyIDtoSubIDmap;\n    /// maps submissionID to bountyID\n    mapping(uint => uint) subIDtoBountyIDmap;\n    /// map of submission ID to submission creator\n    mapping(uint => address payable) subIDtoCreatorMap;\n    /// map of subID to Submissions\n    mapping(uint => Submission) IDtoSubMap;\n\n    /// Events associated with the project\n    event LogBountyCreated(uint bountyID);\n    event LogBountyDeleted(uint bountyID);\n    event LogBountySubmitted(address bountyHunter, uint bountyID);\n    event LogBountyAccepted(address bountyHunter, uint bountyID);\n    event LogSubmissionAccepted(uint bountyID, uint submissionID);\n\n\n    /** @dev Struct to hold bounty info\n\t* @param bountyID unique identifier\n\t* @param description Bounty details\n    * @param bountyAmt Bounty amount\n\t* @param bountyOwner addr of bounty owner\n\t*/\n    struct Bounty\n    {\n        uint bountyID;\n        string description;\n        uint bountyAmt;\n        address payable bountyOwner;\n        bool status;\n    }\n\n    /** @dev Struct to hold bounty info\n    * @param submissionID unique submission ID\n\t* @param bountyID associated bounty ID\n\t* @param URL link to project\n    * @param subOwner address of submission owner\n    * @param accepted bool to indicate if submission was accepted\n\t*/\n    struct Submission\n    {\n        uint submissionID;\n        uint bountyID;\n        string URL;\n        address payable subOwner;\n        bool accepted;\n    }\n\n    constructor(address adminAddr)\n        public\n    {\n        panelInstance = AdminPanel(adminAddr);\n        bountyCount = 0;\n    }\n\n    /// Verifies if the function caller is an approved poster\n    modifier verifyJobPoster()\n    {\n        require (panelInstance.checkPosterAccess(msg.sender) == 2, 'Please request access from Admin.');\n        _;\n    }\n\n    /// Verifies if the function caller created the bounty\n    modifier verifyBountyOwner(uint bountyID)\n    {\n        require(bountyIDtoOwnerMap[bountyID] == msg.sender, 'You are not the owner of this bounty');\n        _;\n    }\n\n\n    /** @dev Allows an approved Poster to create a bounty\n\t* @param _desc Bounty Description\n    * @param _amt Prize money\n\t*/\n    function createBounty(string memory _desc, uint _amt)\n        public\n        verifyJobPoster()\n    {\n        Bounty memory newBounty = Bounty(bountyCount, _desc, _amt, msg.sender, true);\n        bountyIDtoOwnerMap[bountyCount] = msg.sender;\n        ownerBountyIDMap[msg.sender].push(bountyCount);\n        IDtoBountyMap[bountyCount] = newBounty;\n        bountyCount++;\n        emit LogBountyCreated(bountyCount);\n    }\n\n    /** @dev Allows Bounty owner to delete a bounty\n\t* @param bountyID unique BountyID\n\t*/\n    function deleteBounty(uint bountyID)\n        public\n        verifyJobPoster()\n        verifyBountyOwner(bountyID)\n    {\n        require(IDtoBountyMap[bountyID].status == true, 'Bounty is already inactive');\n        IDtoBountyMap[bountyID].status = false;\n        emit LogBountyDeleted(bountyID);\n    }\n\n    /** @dev Fetch list of bountyIDs\n    * @return A list of bountyIDs associated with the owner\n\t*/\n    function viewPostedBounties(address posterAddr)\n        public\n        view\n        returns(uint[] memory)\n    {\n        return ownerBountyIDMap[posterAddr];\n    }\n\n\n    /** @dev Fetch the bountyCount\n    * @return bountyCount that can be used to run a loop and fetch individual bounty details\n\t*/\n    function getBountyCount()\n        public\n        view\n        returns(uint)\n    {\n        return bountyCount;\n    }\n\n    /** @dev Fetches the bounty desc using the bountyID\n\t* @param bountyID unique BountyID\n    * @return Bounty description\n\t*/\n    function getBountyDesc(uint bountyID)\n        public\n        view\n        returns(string memory)\n    {\n        return IDtoBountyMap[bountyID].description;\n    }\n\n    /** @dev Fetches the bounty amt using the bountyID\n\t* @param bountyID unique BountyID\n    * @return Bounty amount\n\t*/\n    function getBountyAmt(uint bountyID)\n        public\n        view\n        returns(uint)\n    {\n        return IDtoBountyMap[bountyID].bountyAmt;\n    }\n\n    /** @dev Fetches the bounty owner addr using the bountyID\n\t* @param bountyID unique BountyID\n    * @return Owner address\n\t*/\n    function getBountyOwner(uint bountyID)\n        public\n        view\n        returns(address)\n    {\n        return IDtoBountyMap[bountyID].bountyOwner;\n    }\n\n    /** @dev Fetches the bounty status using the bountyID\n\t* @param bountyID unique BountyID\n    * @return returns a bool to indicate if bounty is active or not\n\t*/\n    function getBountyStatus(uint bountyID)\n        public\n        view\n        returns(bool)\n    {\n        return IDtoBountyMap[bountyID].status;\n    }\n\n    /** @dev Approve submission for a bounty\n\t* @param bountyID unique BountyID\n\t*/\n    function approveSubmission(uint bountyID, uint submissionID)\n        public\n        payable\n        verifyJobPoster()\n        verifyBountyOwner(bountyID)\n    {\n        require(IDtoBountyMap[bountyID].status == true, 'Bounty is inactive');\n        IDtoSubMap[submissionID].accepted = true;\n        uint amt = IDtoBountyMap[bountyID].bountyAmt;\n\n        require(msg.value >= amt, '');\n        uint refund = msg.value - amt;\n        \n        address payable subOwner = IDtoSubMap[submissionID].subOwner;\n        subOwner.transfer(amt);\n        msg.sender.transfer(refund);\n\n        deleteBounty(bountyID);\n        emit LogSubmissionAccepted(bountyID, submissionID);\n    }\n\n    /** @dev Create a new submission for a bounty\n\t* @param bountyID unique BountyID\n    * @param URL Submission URL\n\t*/\n    function createSubmission(uint bountyID, string memory URL)\n        public\n    {\n        IDtoSubMap[submissionCount] = Submission(submissionCount, bountyID, URL, msg.sender, false);\n        subIDtoBountyIDmap[submissionCount] = bountyID;\n        bountyIDtoSubIDmap[bountyID].push(submissionCount);\n        submissionCount++;\n    }\n\n    /** @dev Get all submission associated with a bounty\n\t* @param bountyID unique BountyID\n    * @return list of submission IDs\n\t*/\n    function getSubsbyBounty(uint bountyID)\n        public\n        view\n        returns (uint[] memory)\n    {\n        return bountyIDtoSubIDmap[bountyID];\n    }\n\n\n    /** @dev Get bounty ID corresponding to a submission\n\t* @param subID unique BountyID\n    * @return Bounty ID\n\t*/\n    function getSubsBountyID(uint subID)\n        public\n        view\n        returns(uint)\n    {\n        return subIDtoBountyIDmap[subID];\n    }\n\n\n    /** @dev Get submission owner addr\n\t* @param subID unique BountyID\n    * @return Address of submission owner\n\t*/\n    function getSubmissionOwner(uint subID)\n        public\n        view\n        returns(address)\n    {\n        return IDtoSubMap[subID].subOwner;\n    }\n\n    /** @dev Get submitted project's URL\n\t* @param subID unique BountyID\n    * @return URL of submitted project\n\t*/\n    function getSubmissionURL(uint subID)\n        public\n        view\n        returns(string memory)\n    {\n        return IDtoSubMap[subID].URL;\n    }\n\n    /** @dev Get submission status\n\t* @param subID unique BountyID\n    * @return bool to indicate whether bounty owner accepted the sub\n\t*/\n    function getSubmissionStatus(uint subID)\n        public\n        view\n        returns(bool)\n    {\n        return IDtoSubMap[subID].accepted;\n    }\n\n\n\n\n}",
  "sourcePath": "/home/tj/Downloads/ConsensysProject-master/contracts/BountyHub.sol",
  "compiler": {
    "name": "solc",
    "version": "0.5.8+commit.23d335f2.Emscripten.clang"
  },
  "schemaVersion": "3.0.11",
  "updatedAt": "2019-08-01T15:35:22.320Z",
  "devdoc": {
    "methods": {
      "approveSubmission(uint256,uint256)": {
        "details": "Approve submission for a bounty",
        "params": {
          "bountyID": "unique BountyID"
        }
      },
      "createBounty(string,uint256)": {
        "details": "Allows an approved Poster to create a bounty",
        "params": {
          "_amt": "Prize money",
          "_desc": "Bounty Description"
        }
      },
      "createSubmission(uint256,string)": {
        "details": "Create a new submission for a bounty",
        "params": {
          "URL": "Submission URL",
          "bountyID": "unique BountyID"
        }
      },
      "deleteBounty(uint256)": {
        "details": "Allows Bounty owner to delete a bounty",
        "params": {
          "bountyID": "unique BountyID"
        }
      },
      "getBountyAmt(uint256)": {
        "details": "Fetches the bounty amt using the bountyID",
        "params": {
          "bountyID": "unique BountyID"
        },
        "return": "Bounty amount"
      },
      "getBountyCount()": {
        "details": "Fetch the bountyCount",
        "return": "bountyCount that can be used to run a loop and fetch individual bounty details"
      },
      "getBountyDesc(uint256)": {
        "details": "Fetches the bounty desc using the bountyID",
        "params": {
          "bountyID": "unique BountyID"
        },
        "return": "Bounty description"
      },
      "getBountyOwner(uint256)": {
        "details": "Fetches the bounty owner addr using the bountyID",
        "params": {
          "bountyID": "unique BountyID"
        },
        "return": "Owner address"
      },
      "getBountyStatus(uint256)": {
        "details": "Fetches the bounty status using the bountyID",
        "params": {
          "bountyID": "unique BountyID"
        },
        "return": "returns a bool to indicate if bounty is active or not"
      },
      "getSubmissionOwner(uint256)": {
        "details": "Get submission owner addr",
        "params": {
          "subID": "unique BountyID"
        },
        "return": "Address of submission owner"
      },
      "getSubmissionStatus(uint256)": {
        "details": "Get submission status",
        "params": {
          "subID": "unique BountyID"
        },
        "return": "bool to indicate whether bounty owner accepted the sub"
      },
      "getSubmissionURL(uint256)": {
        "details": "Get submitted project's URL",
        "params": {
          "subID": "unique BountyID"
        },
        "return": "URL of submitted project"
      },
      "getSubsBountyID(uint256)": {
        "details": "Get bounty ID corresponding to a submission",
        "params": {
          "subID": "unique BountyID"
        },
        "return": "Bounty ID"
      },
      "getSubsbyBounty(uint256)": {
        "details": "Get all submission associated with a bounty",
        "params": {
          "bountyID": "unique BountyID"
        },
        "return": "list of submission IDs"
      },
      "viewPostedBounties(address)": {
        "details": "Fetch list of bountyIDs",
        "return": "A list of bountyIDs associated with the owner"
      }
    }
  },
  "userdoc": {
    "methods": {}
  }
}